:020000040800F2
:10000000B80800209D010008953A0008F93400085E
:10001000413A0008770600082D4D00080000000056
:100020000000000000000000000000000D3E00087D
:100030004B0B000800000000673B00085943000814
:10004000B7010008B7010008B7010008B7010008B0
:10005000B7010008B7010008B7010008B7010008A0
:10006000B7010008B7010008B7010008B701000890
:10007000B7010008B7010008B7010008B701000880
:10008000B7010008B7010008B7010008B701000870
:10009000B7010008B7010008B7010008B701000860
:1000A000B7010008B7010008B7010008B701000850
:1000B000B70100085D440008BD440008B70100080E
:1000C000B7010008B7010008B7010008B701000830
:1000D000B70100081D4D0008B7010008B70100086E
:1000E000B7010008B7010008B7010008B701000810
:1000F000B7010008B7010008B7010008B701000800
:10010000B7010008B7010008B7010008B7010008EF
:10011000B7010008B7010008B7010008B7010008DF
:10012000310A0008B7010008B7010008B70100084C
:10013000B7010008B7010008B7010008B7010008BF
:10014000B7010008B7010008B7010008B7010008AF
:10015000B7010008B7010008B7010008B70100089F
:10016000B7010008B7010008B7010008B70100088F
:10017000B7010008B7010008B7010008000000003F
:10018000B7010008B7010008DFF80CD000F010F943
:10019000004800470D4F0008B80800200648804777
:1001A00006480047FEE7FEE7FEE7FEE7FEE7FEE75C
:1001B000FEE7FEE7FEE7FEE741440008890100088C
:1001C0002DE9F05F0546002092469B46884606468C
:1001D000814640241BE0284641464746224600F01F
:1001E000A0F853465A46C01A914110D311461846FA
:1001F000224600F087F82D1A67EB01084F46224689
:100200000120002100F07EF817EB00094E41201E6E
:10021000A4F10104DFDC484631462A464346BDE8E6
:10022000F09FD2B201E000F8012B491EFBD27047CB
:100230000022F6E710B513460A4604461946FFF7B2
:10024000F0FF204610BD00F0004230F000400AD020
:10025000C10D01F56071C0F3160042EA0151C208F8
:1002600040071143704700200146704730B5041E17
:1002700071F1000404DB4FF00044404264EB0101E3
:10028000141E73F1000405DB1C464FF0004352427C
:1002900063EB04038B4208BF824230BD30B5041EBD
:1002A00071F1000404DB4FF00044404264EB0101B3
:1002B000141E73F1000405DB1C464FF0004352424C
:1002C00063EB0403994208BF904230BD01F0004344
:1002D00030B421F0004150EA010206D00A0DA2F527
:1002E0006072C1F31301002A02DC30BC00207047A9
:1002F000440F44EAC104C100E01830BC00EBC25016
:1003000000F01FB8202A04DB203A00FA02F1002096
:1003100070479140C2F1200320FA03F31943904043
:100320007047202A04DB203A21FA02F000217047AE
:1003300021FA02F3D040C2F120029140084319464D
:1003400070470029A8BF7047401C490008BF20F033
:100350000100704710B4B0FA80FC00FA0CF050EACB
:10036000010404BF10BC704749B1CCF1200421FA4C
:1003700004F411FA0CF118BF012121430843A3EB47
:100380000C01CB1D4FEA00614FEA102042BF002054
:1003900010BC704700EBC35010440029A4BF10BC30
:1003A0007047401C490008BF20F0010010BC704796
:1003B000064C074D06E0E06840F0010394E80700B2
:1003C00098471034AC42F6D3FFF7E2FE9C57000882
:1003D000BC57000870B58C1810F8015B15F00703C6
:1003E00001D110F8013B2A1106D110F8012B03E0CE
:1003F00010F8016B01F8016B5B1EF9D12B0705D4D6
:100400000023521E0DD401F8013BFAE710F8013B1E
:10041000CB1A921C03E013F8015B01F8015B521E3A
:10042000F9D5A142D8D3002070BD000010B5062236
:100430000249034800F0B8FF10BD00008804002006
:100440004802002070B50546AC6B206C00F05000EF
:1004500050BB206C40F4007020642068806800F07D
:100460004050E8B9207ED8B92068C06A00F4700016
:1004700020B12068806800F4806088B920684068F6
:1004800020F0200021684860206C20F480702064F7
:10049000206C00F4805018B9206C40F001002064FA
:1004A000204600F0E5FE0BE0206C00F0100018B1D3
:1004B000204600F0DFFE03E0A06BC16C28468847B1
:1004C00070BD70B50546AC6B40202064606C40F098
:1004D00004006064204600F0CDFE70BD70B5044697
:1004E000A56B284600F0C5FE70BD000055494A685E
:1004F00022F440324A604A6843681A434A600268FC
:10050000526822F4807203685A6002685368026974
:1005100043EA022203685A600268526822F040727D
:1005200003685A600268526883681A4303685A6015
:100530000268926822F4006203689A600268926816
:10054000C3681A4303689A603F4B826A9A4218D084
:100550000268926822F0706203689A60026892688A
:10056000836A1A4303689A600268926822F04052D4
:1005700003689A6002689268C36A1A4303689A60C3
:100580000BE00268926822F0706203689A60026869
:10059000926822F0405203689A600268926822F0E2
:1005A000020203689A6002689368027E43EA42028C
:1005B00003689A602022125CA2B10268526842F479
:1005C000006203685A600268526822F4604203685D
:1005D0005A6002685368426A521E43EA4232036814
:1005E0005A6005E00268526822F4006203685A60AB
:1005F0000268D26A22F470020368DA620268D36A7F
:10060000828B521E43EA02520368DA6202689268E1
:1006100022F4007203689A600268936890F83020B0
:1006200043EA422203689A600268926822F4806278
:1006300003689A6002689368426943EA8222036809
:100640009A607047002301400100000F10B502F0CE
:10065000ABFF03F089FA00F055FB03F091FA10BDEF
:1006600010B502F0A9FF03F085FA00F04FFB03F08C
:1006700088FA10BD704700BFFEE7000090ED070A42
:1006800080ED0A0A90ED070AD0ED080AB0EE001AD4
:1006900001EE200ADFED030A80EE201A80ED0B1A2E
:1006A000704700002DB2DD3F10B52DED088B0446DC
:1006B00094ED0D0A84ED130A94ED040A84ED140AF6
:1006C00094ED140AD4ED130A30EE600A84ED150A95
:1006D00094ED150AD4ED160A30EE600AD4ED100A36
:1006E00020EE200AD4ED110A94ED151A00EE810ACD
:1006F000D4ED170A30EE200A84ED170A94ED150A9E
:1007000084ED160A94ED180A10EE101A0846FFF749
:100710009AFD41EC1A0BB0EE4A0AF0EE6A0A04F0B8
:100720003BFBB0EE408AF0EE608A94ED170A10EEC3
:10073000101A0846FFF787FD41EC190B53EC182BF4
:10074000FFF7ACFD17D294ED180A10EE101A084608
:10075000FFF779FD41EC190BB0EE490AF0EE690A9A
:1007600004F01AFBB0EE408AF0EE608A51EC180BF0
:10077000FFF7ACFDE06594ED180A10EE101A08467C
:10078000FFF761FD41EC1B0BB0EE4B0AF0EE6B0A7C
:1007900004F002FBB0EE40AAF0EE60AA51EC1A0B96
:1007A00081F0004141EC180B94ED170A10EE101A7D
:1007B0000846FFF748FD41EC190B53EC182BFFF7E7
:1007C00055FD1BD294ED180A10EE101A0846FFF7DB
:1007D0003AFD41EC1A0BB0EE4A0AF0EE6A0A04F058
:1007E000DBFAB0EE409AF0EE609A51EC190B81F012
:1007F000004141EC180BFFF769FDE065BDEC088B8B
:1008000010BD10B52DED088B044694ED0C0A84ED57
:100810001C0A94ED030A84ED1D0A94ED1D0AD4ED23
:100820001C0A30EE600A84ED1E0A94ED1E0AD4ED17
:100830001F0A30EE600AD4ED190A20EE200AD4ED2A
:100840001A0A94ED1E1A00EE810AD4ED200A30EE49
:10085000200A84ED200A94ED1E0A84ED1F0A94ED0F
:10086000210A10EE101A0846FFF7EDFC41EC1A0BB6
:10087000B0EE4A0AF0EE6A0A04F08EFAB0EE408A50
:10088000F0EE608A94ED200A10EE101A0846FFF789
:10089000DAFC41EC190B53EC182BFFF7FFFC18D2D4
:1008A00094ED210A10EE101A0846FFF7CCFC41EC3B
:1008B000190BB0EE490AF0EE690A04F06DFAB0EED9
:1008C000408AF0EE608A51EC180BFFF7FFFC8021A4
:1008D000085194ED210A10EE101A0846FFF7B3FCF8
:1008E00041EC1B0BB0EE4B0AF0EE6B0A04F054FA2D
:1008F000B0EE40AAF0EE60AA51EC1A0B81F0004174
:1009000041EC180B94ED200A10EE101A0846FFF780
:100910009AFC41EC190B53EC182BFFF7A7FC1CD2E7
:1009200094ED210A10EE101A0846FFF78CFC41ECFA
:100930001A0BB0EE4A0AF0EE6A0A04F02DFAB0EE95
:10094000409AF0EE609A51EC190B81F0004141ECB5
:10095000180BFFF7BBFC80210851BDEC088B10BDC4
:1009600010B5044604F12402111F081FD4F8943076
:100970009847D4F890008047072853D2DFE800F06A
:100980005204111E2B38450094ED080ADFED270AAA
:1009900030EEC00AD4ED090A30EE600A84ED070A91
:1009A00041E094ED070ADFED210A30EEC00AD4EDF4
:1009B000090A30EE600A84ED080A34E094ED070A73
:1009C000DFED1A0A30EEC00AD4ED090A30EE600AF3
:1009D00084ED080A27E094ED070ADFED140A30EEF3
:1009E000C00AD4ED080A30EE600A84ED090A1AE064
:1009F00094ED070ADFED0D0A30EEC00AD4ED080AC7
:100A000030EE600A84ED090A0DE094ED080ADFED8E
:100A1000070A30EEC00AD4ED090A30EE600A84ED10
:100A2000070A00E000BF00BF10BD0000000000008A
:100A300010B5024800F08CFE10BD000090020020AE
:100A40000146087810381823B0FBF3F20848805CA0
:100A5000C865032A05D908686FF30900001D886579
:100A600003E008686FF309008865886D704700002F
:100A7000784F0008014600208A6A8B69CBB932B1F1
:100A8000012A0DD0022A03D0032A10D10EE000BFA4
:100A9000CB6A03F08073B3F1807F00D1012007E0BF
:100AA000CB6AB3F1C07F00D1012001E000E000BFBC
:100AB00034E08B69B3F5005F1AD132B1012A07D057
:100AC000022A03D0032A11D10AE000BF01200EE060
:100AD000CB6A03F08073B3F1807F00D1012006E080
:100AE000CB6AB3F1C07F00D1012000E000BF15E068
:100AF00032B1012A05D0022A04D0032A0CD103E026
:100B000000BF00BF012008E0CB6A03F08073B3F19F
:100B1000807F00D1012000E000BF00BF704730B5EA
:100B20000468246824F4802405682C6004686360E9
:100B30008468402C04D10468A2600468E16003E08A
:100B40000468A1600468E26030BD7047704700002F
:100B500010B50121154803F070F9DFED150A9FED7E
:100B6000150A124803F064F9DFED131A9FED111A0C
:100B7000DFED120A9FED120A0C4803F048F901213B
:100B8000104803F05AF9DFED0B0A9FED0A0A0D48F1
:100B900003F04EF9DFED081A9FED061ADFED070AA4
:100BA0009FED070A074803F032F910BD140000203A
:100BB000000048C2000000006991DD4052499D39A3
:100BC00017B75139B000002010B51B4800F048F8A5
:100BD0001A4804681A48006800F57A7084420FD3F6
:100BE000DFED180A9FED180A184803F021F9DFED30
:100BF000180A9FED150A104803F01AF9104804600E
:100C00000E4804681348006800F5FA6084420FD368
:100C1000DFED110A9FED0C0A0C4803F009F9DFED36
:100C20000F0A9FED090A044803F002F9094804601D
:100C3000064800F015F810BD140000201000002038
:100C40004C01002000007A4300000000B0000020AA
:100C50000000C8425001002000007AC30000C8C252
:100C600010B504460E4920680968081A00EE100AFB
:100C7000B8EE400AD4ED010A9FED0A1A60EE810A2F
:100C8000B4EEE00AF1EE10FA01DB012000E00020F2
:100C900028B1034800682060204600F005F810BD28
:100CA0004002002000007A4410B50446207AD4F8AF
:100CB00088108847204600F037F82046FFF750FE9E
:100CC0002046FFF7DBFC204602F018FF2046FFF726
:100CD000EBFC2046FFF795FD9FED090A84ED170A0E
:100CE000204602F0D8FE94ED0F1AF0EE410A94ED82
:100CF0000E1AB0EE410AD4F89800804710BD0000EB
:100D00000000000010B5FFF7B5FC10BD70470000F3
:100D10000146062901DB00207047024850F82100F7
:100D2000FAE70000A004002010B50446D4F88C00B7
:100D30008047607A00EE900AF8EE600A20EE200A02
:100D400084ED050A94ED050ADFED030A20EE200A82
:100D500084ED060A10BD00004DF38E3C0848C068C3
:100D6000A0F500600649486208460069A0F50060E9
:100D7000886208464069A0F50060C86270470000BC
:100D80008804002070B504460D4616460520FFF77E
:100D9000BFFF00EE100AB8EEC00A84ED000A04207E
:100DA000FFF7B6FF00EE100AB8EEC00A85ED000AA4
:100DB0000320FFF7ADFF00EE100AB8EEC00A86ED83
:100DC000000A70BD10B5024800F040F810BD0000E8
:100DD0007001002008480068A0F50060064988619D
:100DE00008464068A0F50060C86108468068A0F524
:100DF00000600862704700008804002070B5044657
:100E00000D4616460020FFF783FF00EE100AB8EEED
:100E1000C00A84ED000A0120FFF77AFF00EE100AF5
:100E2000B8EEC00A85ED000A0220FFF771FF00EE60
:100E3000100AB8EEC00A86ED000A70BD10B502486F
:100E400000F004F810BD0000BC010020014691F83C
:100E50003C00704790F83C1007297CD2DFE801F095
:100E60007B04376A9FD2FD0090ED0D0ADFED9B0AEF
:100E700020EE200AD0ED0E0A80EE201A90ED030A33
:100E800021EE000A80ED090A90ED0D0ADFED930ACC
:100E900020EE200AD0ED0E0A80EE201A90ED020A14
:100EA00021EE000A80ED0B0A90ED0D0AD0ED090A43
:100EB00030EE600AD0ED0B0A30EE600AF0EE000A68
:100EC00080EE201A80ED0C1A80ED051A03E190EDFA
:100ED0000D0ADFED830A20EE200AD0ED0E0A80EE27
:100EE000201A90ED030A21EE000A80ED070A90ED2A
:100EF0000D0ADFED7B0A20EE200AD0ED0E0A80EE0F
:100F0000201A90ED040A21EE000A80ED0B0A90ED04
:100F10000D0AD0ED070A30EE600AD0ED0B0A30EE74
:100F2000600AF0EE000A80EE201A80ED0C1A80EDC7
:100F3000051AD0E090ED0D0ADFED680A60EE200A98
:100F400090ED0E1A80EE810AD0ED020A20EE200A02
:100F500080ED070A00E0BDE090ED0D0ADFED5F0ACD
:100F600020EE200AD0ED0E0A80EE201A90ED040A41
:100F700021EE000A80ED080A90ED0D0AD0ED070A77
:100F800030EE600AD0ED080A30EE600AF0EE000A9A
:100F900080EE201A80ED0C1A80ED051A9BE090ED92
:100FA0000D0ADFED4F0A20EE200A90ED0E1AC0EE7A
:100FB000010A90ED020A20EE800A80ED060A90ED0B
:100FC0000D0ADFED470A20EE200A90ED0E1AC0EE62
:100FD000010A90ED030A20EE800A80ED080A90EDE8
:100FE0000D0AD0ED060A30EE600AD0ED080A30EEA8
:100FF000600AF0EE000A80EE201A80ED0C1A80EDF7
:10100000051A68E090ED0D0ADFED340A60EE200A63
:1010100090ED0E1A80EE810AD0ED040A20EE200A2F
:1010200080ED060A90ED0D0ADFED2C0A60EE200A35
:1010300090ED0E1A80EE810AD0ED030A20EE200A10
:1010400080ED0A0A90ED0D0AD0ED060A30EE600A36
:10105000D0ED0A0A30EE600A00E008E0F0EE000A87
:1010600080EE201A80ED0C1A80ED051A33E090ED29
:101070000D0ADFED1B0A60EE200A90ED0E1A80EEDD
:10108000810AD0ED040A20EE200A80ED090A90EDD5
:101090000D0ADFED130A20EE200AD0ED0E0A80EED5
:1010A000201A90ED020A21EE000A80ED0A0A90ED66
:1010B0000D0AD0ED090A30EE600AD0ED0A0A30EED2
:1010C000600AF0EE000A80EE201A80ED0C1A80ED26
:1010D000051A00E000BF00BF704700002DB2DD3FE1
:1010E0002DB2DDBF38B502460020009000BF92F857
:1010F0003C00012801D1022038BD012082F83C00CB
:1011000000BF0868092816D91068C0680C780A3C26
:1011100004EB44050724AC40A0431468E0600C785D
:101120000A3C04EB44048868A0401468E468204347
:101130001468E06013E0106800690C7804EB440563
:101140000724AC40A043146820610C7804EB4404ED
:101150008868A040146824692043146820614868A6
:10116000072817D21068406B0C79641E04EB8405C5
:101170001F24AC40A04314686063088880B20C79D7
:10118000641E04EB8404A0401468646B204314685C
:10119000606331E048680D2817D21068006B0C7945
:1011A000E41F04EB84051F24AC40A04314682063B3
:1011B000088880B20C79E41F04EB8404A040146812
:1011C000246B20431468206316E01068C06A0C7911
:1011D0000D3C04EB84051F24AC40A0431468E0627E
:1011E000088880B20C790D3C04EB8404A04014689C
:1011F000E46A20431468E062194B1A4C1068A0425C
:1012000006D10868122803D1586840F4800058605D
:10121000144C1068A0421CD10868102802D008683D
:10122000112816D1586840F400005860086810284A
:101230000FD10D4800680D4CB0FBF4F000EB8000BE
:101240004000009002E00098401E009000980028A6
:10125000F9D100BF002082F83C0000BF00BF4BE77F
:1012600000230140002001400C00002040420F00FC
:10127000704770477047000070B5044600250CB9F0
:10128000012070BD1549A06A884200D000BF206CC3
:1012900030B9204600F024F80020606484F83C0057
:1012A000206C00F0100088B9206C20F4885040F0C9
:1012B000020020642046FFF719F900206064206CCA
:1012C00020F0020040F00100206400E0012500BF92
:1012D000002084F83C0000BF2846D2E70100000F40
:1012E00010B586B00446142101A8FEF7A1FF2949D4
:1012F000206888424BD100BF00200090264800683B
:1013000040F48070244908600846006800F480704A
:10131000009000BF00BF00BF002000901E4814389E
:10132000006840F001001C49143908600846006854
:1013300000F00100009000BF00BF3F20019003209B
:1013400002900020039001A9144800F0E1FB14482A
:101350001449086000204860002112488160C16083
:101360004FF48061016189004161890081618911C7
:10137000C161490201620021416200F009FB08B12C
:10138000FFF7E4FB00BF0748A063846300BF06B01B
:1013900010BD00000020014044380240000002401F
:1013A0001064024090020020F8B504460D4616462F
:1013B0000020009000BF94F83C00012801D10220D9
:1013C000F8BD012084F83C0000BF2068806800F070
:1013D0000100A0B92068806840F0010021688860A1
:1013E000494800684949B0FBF1F000EB400000902B
:1013F00002E00098401E009000980028F9D1206873
:10140000806800F0010000287CD0206C40F201616F
:10141000884340F4807020642068406800F4806055
:1014200028B1206C20F4005040F480502064206CDF
:1014300000F48050B0F5805F04D1606C20F00600AD
:10144000606401E00020606400BF002084F83C007C
:1014500000BF2F4F2F48A16BC8632F48A16B0864B2
:101460002E48A16BC8646FF02200216808602068D4
:10147000406840F08060216848602068806840F4DF
:10148000807021688860226802F14C0133462A4648
:10149000A06B00F0F3FA786800F01F0018BB204939
:1014A0002068884213D01F492068884204D1381D23
:1014B000006800F01F0050B11B492068884221D10C
:1014C0001348001D006800F01F0010281AD2206881
:1014D000806800F0405028B92068806840F0804063
:1014E000216888600EE00E49206888420AD1206891
:1014F000806800F0405028B92068806840F0804043
:101500002168886000205BE70C00002040420F004B
:101510000023014045040008DD040008C30400085E
:1015200000200140002101400022014070B5044626
:101530000CB9012070BD94F8200010B9204600F0CD
:10154000AFF82068006820F002002168086000F011
:10155000E5FB05460DE000F0E1FB401B0A2808D939
:10156000606A40F400306062052084F820000120A9
:10157000E0E72068406800F002000028EBD1206816
:10158000006840F001002168086000F0C7FB0546D4
:101590000DE000F0C3FB401B0A2808D9606A40F444
:1015A00000306062052084F820000120C2E7206836
:1015B000406800F001000028EBD0207E012806D111
:1015C0002068006840F080002168086005E020681D
:1015D000006820F0800021680860607E012806D144
:1015E0002068006840F040002168086005E020683D
:1015F000006820F0400021680860A07E012806D124
:101600002068006840F020002168086005E020683C
:10161000006820F0200021680860E07E012806D1E3
:101620002068006820F010002168086005E020684C
:10163000006840F0100021680860207F012806D172
:101640002068006840F008002168086005E0206814
:10165000006820F0080021680860607F012806D13A
:101660002068006840F004002168086005E02068F8
:10167000006820F0040021680860D4E902010843F2
:1016800021690843616908436168491E084321686C
:10169000C86100206062012084F82000002049E732
:1016A00010B586B00446142101A8FEF7C1FD1B4900
:1016B0002068884230D100BF0020009018480068A0
:1016C00040F00070164908600846006800F000709D
:1016D000009000BF00BF00BF0020009010481038ED
:1016E000006840F001000E491039086008460068A3
:1016F00000F00100009000BF00BF4FF4C050019007
:1017000002200290002003900320049009200590FD
:1017100001A9044800F0FCF906B010BD00640040C7
:101720004038024000000240014691F8350002288E
:1017300003D08020486501207047052081F83500DE
:101740000868006820F001000A6810600020F3E7D4
:10175000F8B50446002000908C4800684FF41651FC
:10176000B0FBF1F7A56D2E6894F85C100820884056
:10177000304098B12068006800F0040070B1206823
:10178000006820F004002168086094F85C100820CC
:101790008840A860606D40F00100606594F85C10BE
:1017A00001208840304068B12068406900F0800026
:1017B00040B194F85C1001208840A860606D40F052
:1017C0000200606594F85C1004208840304068B1E5
:1017D0002068006800F0020040B194F85C1004201A
:1017E0008840A860606D40F00400606594F85C106B
:1017F00010208840304078B32068006800F008006E
:1018000050B394F85C1010208840A86020680068ED
:1018100000F4802080B12068006800F4002028B91E
:10182000206CC8B12046216C884715E0A06C98B1A7
:101830002046A16C88470FE02068006800F48070A3
:1018400028B92068006820F0080021680860206C32
:1018500010B12046216C884794F85C102020884005
:101860003040002865D02068006800F01000002893
:101870005FD094F85C1020208840A86094F8350070
:10188000052828D12068006820F01600216808602B
:101890002068406920F0800021684861206C08B908
:1018A000A06C28B12068006820F00800216808605A
:1018B00094F85C103F208840A86000BF002084F8A6
:1018C000340000BF012084F83500206D10B120469F
:1018D000216D8847F8BD2068006800F4802080B141
:1018E0002068006800F4002028B9606C10B1204620
:1018F000616C88471DE0E06BD8B12046E16B8847FA
:1019000017E02068006800F4807068B920680068FB
:1019100020F010002168086000BF002084F8340027
:1019200000BF012084F83500E06B10B12046E16B68
:101930008847606D38B3606D00F00100F0B105209C
:1019400084F835002068006820F0010021680860F4
:1019500000BF0098401C0090B84200D905E0206804
:10196000006800F001000028F3D100BF00BF002094
:1019700084F8340000BF012084F83500E06C10B119
:101980002046E16C884700BFA4E700000C0000205F
:101990002DE9F0410446002500F0C0F9074614B9CE
:1019A0000120BDE8F081606A00B100BF00BF0020E7
:1019B00084F8340000BF022084F8350020680068F5
:1019C00020F00100216808600AE000F0A7F9C01BC0
:1019D000052805D920206065032084F83500E0E75C
:1019E0002068006800F001000028EED1206805683A
:1019F00021480540D4E901010843E1680843216911
:101A0000084361690843A1690843E1690843216A01
:101A100008430543606A042803D1D4E90B01084355
:101A20000543206805602068456925F00705606A60
:101A30000543606A04280DD1A06A0543E06A48B1F5
:101A40002046FFF717F828B140206065012084F890
:101A50003500A6E7206845612046FEF7F1FF0646FF
:101A600094F85C103F208840B06000206065012041
:101A700084F83500002094E73F8010F02DE9F0470E
:101A800004460D4616461F464FF00008D4F85890FD
:101A900000BF94F83400012802D10220BDE8F0878D
:101AA000012084F8340000BF94F83500012825D1C6
:101AB000022084F83500002060653B463246294606
:101AC0002046FFF72CF894F85C103F208840C9F8B6
:101AD00008002068006840F0160021680860206C4B
:101AE00028B12068006840F008002168086020687C
:101AF000006840F001002168086006E000BF002097
:101B000084F8340000BF4FF002084046C6E70000EA
:101B1000F8B502460B460025002400200021DCE039
:101B2000012606FA01F51E6806EA0504AC4273D1E7
:101B30005E68012E08D05E68022E05D05E68112E08
:101B400002D05E68122E13D190684F000326BE406B
:101B5000B0434F00DE68BE403043906050680126BD
:101B60008E40B0431E79C6F300168E40304350605D
:101B7000D0684F000326BE40B0434F009E68BE4071
:101B80003043D0605E68022E02D05E68122E13D100
:101B9000CF0802F1200656F827004E07F70E0F2651
:101BA000BE40B0434F07FF0E1E69BE403043CF0812
:101BB00002F1200646F8270010684F000326BE40B9
:101BC000B0431E7906F003064F00BE40304310605C
:101BD0005E6806F08056B6F1805F7DD100BF0026BA
:101BE0000096404E366846F480463E4F3E603E4684
:101BF000366806F48046009600BF00BF3A4E8F0854
:101C000056F827008E07370F0F26BE40B043374ED9
:101C1000B24202D1002624E05EE0354EB24201D14C
:101C200001261EE0334EB24201D1022619E0324EA7
:101C3000B24201D1032614E0304EB24201D1042653
:101C40000FE02F4EB24201D105260AE02D4EB242DE
:101C500001D1062605E02C4EB24201D1072600E054
:101C600008268F073F0FBE4030431F4E8F0846F8AF
:101C70002700264E3068A0435E6806F48036B6F52D
:101C8000803F00D12043214E3060361D3068A04394
:101C90005E6806F40036B6F5003F00D120431B4EC7
:101CA000361D3060361D3068A0435E6806F480162D
:101CB000B6F5801F00D12043144E08363060361D23
:101CC0003068A0435E6806F40016B6F5001F00D128
:101CD00020430E4E0C363060491C1029FFF420AF13
:101CE000F8BD0000443802400838014000000240BE
:101CF0000004024000080240000C024000100240B4
:101D00000014024000180240001C0240003C014048
:101D10000AB1816101E00B048361704701480068EA
:101D20007047000000000020014800787047000064
:101D30000800002003480068034909780844014965
:101D400008607047000000200800002010B50D4812
:101D5000006840F400700B4908600846006840F4D1
:101D6000806008600846006840F4807008600320C6
:101D700000F0A2F8002000F007F800F02BF8002097
:101D800010BD0000003C024070B504460E480078CB
:101D90004FF47A71B1FBF0F00C490968B1FBF0F532
:101DA000284600F07DFF08B1012070BD102C07D23D
:101DB00000222146501E00F041F80548046001E071
:101DC0000120F2E70020F0E7080000200C000020CE
:101DD0000400002008B500BF002000900E480068F5
:101DE00040F480400C4908600846006800F48040D8
:101DF000009000BF00BF00BF00200090081F0068D7
:101E000040F08050091F08600846006800F08050CC
:101E1000009000BF00BF08BD44380240014608469C
:101E2000002809DB00F01F0301229A4043099B00B0
:101E300003F1E023C3F8002100BF70472DE9F05FF4
:101E400080460D461646002702F08AFF07463946AF
:101E50002A46334601F00700C0F1070ABAF1040F21
:101E600002D94FF0040A01E0C0F1070AD14600F19F
:101E7000040ABAF1070F02D24FF0000A01E0A0F104
:101E8000030AD4464FF0010A0AFA09FAAAF1010A34
:101E90000AEA020A0AFA0CFA4FF0010B0BFA0CFBE1
:101EA000ABF1010B0BEA030B4AEA0B042146404657
:101EB00002F05EFFBDE8F09F00BF00F00702064B96
:101EC00019684FF6FF031940044B0B4343EA022104
:101ED000014B196000BF70470CED00E00000FA05EF
:101EE00070B504460D460CB9012070BD5848006815
:101EF00000F00F00A84209D255490D70084600684D
:101F000000F00F00A84201D00120EEE7207800F099
:101F1000020002281DD1207800F00400042805D119
:101F20004C48006840F4E0504A490860207800F0CE
:101F30000800082805D14748006840F4604045493A
:101F400008604448006820F0F000A1680843414957
:101F50000860207800F00100A8B36068012807D16C
:101F60003C4808380068C0F34040B8B90120BCE7DD
:101F70006068022802D06068032807D13548083815
:101F80000068C0F3406048B90120AEE73148083826
:101F90000068C0F3400008B90120A6E72D4800689A
:101FA00020F00300616808432A490860FFF7B6FE85
:101FB000064609E0FFF7B2FE801B41F288318842F5
:101FC00002D9032091E707E02248006800F00C00E6
:101FD0006168B0EB810FEDD11D48006800F00F0083
:101FE000A84209D91A490D700846006800F00F0090
:101FF000A84201D0012078E7207800F004000428EE
:1020000007D11448006820F4E050E1680843114902
:102010000860207800F00800082808D10D48006802
:1020200020F46040216940EAC1000A49086000F0DC
:102030003FF808490968C1F30311074A515CC840D9
:102040000649086006480068FFF79EFE00204CE73E
:10205000003C024008380240804F00080C0000207D
:102060000400002001480068704700000C000020B8
:1020700000B5FFF7F7FF04490968C1F38221034A5D
:10208000515CC84000BD000008380240904F000875
:1020900000B5FFF7E7FF04490968C1F34231034A7D
:1020A000515CC84000BD000008380240904F000855
:1020B0002DE9F047002400250026A14625480068A8
:1020C00000F00C0020B1042805D008283AD105E022
:1020D000DFF8849039E0DFF8849036E01D48001F77
:1020E000006800F03F041B48001F006800F48000F7
:1020F00078B11A481749091F0968C1F38811A0FB74
:1021000001700146224600233846FEF759F805467D
:102110000EE011480F49091F0968C1F38811A0FB9F
:1021200001700146224600233846FEF749F805466D
:102130000848001F0068C0F30140401C4600B5FB82
:10214000F6F902E0DFF8109000BF00BF4846BDE896
:10215000F0870000083802400024F40000127A00E2
:10216000F8B504460CB90120F8BD207800F0010054
:10217000002874D0F948006800F00C0004280DD045
:10218000F648006800F00C00082813D1F348001F3F
:10219000006800F48000B0F5800F0BD1EF480838DC
:1021A0000068C0F34040002859D06068002856D12C
:1021B0000120D9E700BF6068B0F5803F08D1E7484B
:1021C0000838006840F48030E449083908601EE0AF
:1021D0006068B0F5A02F0DD1E0480838006840F4E1
:1021E0008020DE49083908600846006840F48030E5
:1021F00008600CE0D9480838006820F48030D749DE
:10220000083908600846006820F48020086000BF94
:10221000606890B1FFF782FD054606E0FFF77EFD9E
:10222000401B642801D903209EE7CC480838006889
:10223000C0F340400028F1D011E0FFF76FFD0546E4
:1022400006E0FFF76BFD401B642801D903208BE7F4
:10225000C24808380068C0F340400028F1D1207817
:1022600000F0020002285FD1BC48006800F00C00BA
:1022700058B1BA48006800F00C0008281CD1B748D3
:10228000001F006800F48000B0B9B4480838006846
:10229000C0F3400020B1E068012801D0012063E7CD
:1022A000AE480838006820F0F800216940EAC10013
:1022B000AA490839086037E0E06800B30120A8495E
:1022C0000860FFF72BFD054606E0FFF727FD401BE2
:1022D000022801D9032047E7A04808380068C0F366
:1022E00040000028F1D09D480838006820F0F80030
:1022F000216940EAC10099490839086014E00020CA
:1023000097490860FFF70AFD054606E0FFF706FD5E
:10231000401B022801D9032026E7904808380068AE
:10232000C0F340000028F1D1207800F00800082810
:102330002CD16069A8B101208A490860FFF7EEFC42
:10234000054606E0FFF7EAFC401B022801D90320FE
:102350000AE782486C300068C0F340000028F1D0E2
:1023600014E000207F490860FFF7D8FC054606E02E
:10237000FFF7D4FC401B022801D90320F4E677487C
:102380006C300068C0F340000028F1D1207800F0E4
:102390000400042870D1002770483830006800F02D
:1023A000805090B900BF002000906C483830006821
:1023B00040F080506949383108600846006800F0F4
:1023C0008050009000BF00BF01276748006800F4FC
:1023D0008070B0B96448006840F480706249086059
:1023E000FFF79CFC054606E0FFF798FC401B02281F
:1023F00001D90320B8E65C48006800F4807000282A
:10240000F2D000BFA068012808D1544868300068A5
:1024100040F001005149683108601DE0A0680528BE
:102420000DD14E486830006840F004004B496831D7
:1024300008600846006840F0010008600CE047486A
:102440006830006820F0010044496831086008469F
:10245000006820F00400086000BFA068A8B1FFF782
:102460005DFC054609E0FFF759FC401B41F288314D
:10247000884202D9032077E626E0384868300068B1
:10248000C0F340000028EED013E0FFF747FC0546FC
:1024900008E0FFF743FC401B41F28831884201D934
:1024A000032061E62D4868300068C0F34000002832
:1024B000EFD1012F07D129483830006820F0805033
:1024C00026493831086000BFA069002845D023485C
:1024D000006800F00C0008285DD0A069022845D1F2
:1024E00000201F490866FFF719FC054606E0FFF7C4
:1024F00015FC401B022801D9032035E6174808388F
:102500000068C0F340600028F1D1D4E90701084316
:10251000616A40EA81110122A06AC2EB500041EADF
:1025200000412C20005D41EA00600C49091F086051
:1025300001200B490866FFF7F1FB054606E0FFF7AF
:10254000EDFB401B022801D903200DE603480838A3
:102550000068C0F340600028F1D03FE00838024036
:1025600000004742800E47420070004000201C4996
:102570000866FFF7D3FB054606E0FFF7CFFB401BDD
:10258000022801D90320EFE516480068C0F3406037
:102590000028F2D122E0A069012800D1E4E5114829
:1025A000001D066806F48001E069814214D106F03E
:1025B0003F01206A81420FD147F6C0703040616A06
:1025C000884209D106F44031A06A814204D106F064
:1025D0007061E06A814201D00120C5E50020C3E5B9
:1025E000000047420038024010B504460CB90120F3
:1025F00010BD606A00B900BF0021A16294F85100CB
:1026000028B9002084F85000204600F033F802205A
:1026100084F851002068006820F0400021680860BC
:10262000D4E901010843E16808432169084361696D
:102630000843218B01F400710843E1690843216AD2
:102640000843A16A0843216808600421A06901EADF
:102650001040616A0843216848602068C06920F41E
:1026600000602168C86100206065012084F8510085
:102670000020BDE710B586B00446142101A8FDF77F
:10268000D7FD37492068884230D100BF0020009034
:102690003448006840F480503249086008460068B9
:1026A00000F48050009000BF00BF00BF00200090E9
:1026B0002C481438006840F002002A491439086098
:1026C0000846006800F00200009000BF00BF3820FC
:1026D0000190022002900020039003200490052026
:1026E000059001A92048FFF713FA36E01F4920683A
:1026F000884232D100BF002000901A48001F0068B5
:1027000040F480401749091F08600846006800F43B
:102710008040009000BF00BF00BF00200090114823
:102720001438006840F002000E4914390860084669
:10273000006800F00200009000BF00BF4FF460404E
:1027400001900220029000200390032004900520B5
:10275000059001A90448FFF7DBF906B010BD0000A1
:10276000003001404438024000040240003800407C
:102770002DE9F8430446884616461D464FF00009E9
:102780006068B0F5827F0DD1A06858B9042084F844
:1027900051003346424641462046009500F06BF911
:1027A000BDE8F88300BF94F85000012801D1022051
:1027B000F6E7012084F8500000BFFFF7AFFA0746A4
:1027C00094F85100012802D04FF0020978E0B8F1E6
:1027D000000F00D016B94FF0010971E0042084F811
:1027E000510000206065C4F83880A687E687206322
:1027F000A086E08620646064A068B0F5004F05D133
:102800002068006820F48040216808602068006823
:1028100000F04000402805D02068006840F04000EB
:1028200021680860E068F8B91AE02068806800F064
:10283000010050B12068007BA16B0870A06B401CA8
:10284000A063E08F401EE0870AE0FFF767FAC01B35
:10285000A84201D3681C00B915B94FF003092FE055
:10286000E08F0028E1D11EE01AE02068806800F0C7
:10287000010050B12068C068A16B0880A06B801C6B
:10288000A063E08F401EE0870AE0FFF747FAC01B15
:10289000A84201D3681C00B915B94FF003090FE035
:1028A000E08F0028E1D13A462946204601F0DAF9C6
:1028B00008B120206065606D08B14FF0010900BFCC
:1028C000012084F8510000BF002084F8500000BFB0
:1028D000484665E72DE9F84F0446884616461D46EA
:1028E0004FF0000A00BF94F85000012802D10220E6
:1028F000BDE8F88F012084F8500000BFFFF70EFA02
:102900000746B14694F85100012802D04FF0020A60
:10291000A7E0B8F1000F00D016B94FF0010AA0E00F
:10292000032084F8510000206065C4F83080A6863A
:10293000E686A063A087E08760642064A068B0F5A5
:10294000004F05D12068006840F48040216808608D
:102950002068006800F04000402805D0206800682A
:1029600040F0400021680860E068B0F5006F2FD1AA
:10297000606810B1B9F1010F09D1206B008821689E
:10298000C860206B801C2063E08E401EE0861BE048
:102990002068806800F0020002280AD1206B0088BD
:1029A0002168C860206B801C2063E08E401EE0869A
:1029B0000AE0FFF7B3F9C01BA84201D3681C00B9B5
:1029C00015B94FF0030A4CE0E08E0028E0D12EE06C
:1029D000606810B1B9F1010F09D1206B007821684E
:1029E0000873206B401C2063E08E401EE0861BE0D5
:1029F0002068806800F0020002280AD1206B00786D
:102A000021680873206B401C2063E08E401EE08626
:102A10000AE0FFF783F9C01BA84201D3681C00B984
:102A200015B94FF0030A1CE0E08E0028E0D13A46C9
:102A30002946204601F060F908B120206065A068B1
:102A400050B900BF002000902068C0680090206846
:102A50008068009000BF00BF606D08B14FF0010AB0
:102A600000BF012084F8510000BF002084F850000E
:102A700000BF50463CE72DE9FF5F0446884691467B
:102A80001D460E9E012002900020019000BF94F888
:102A90005000012803D1022004B0BDE8F09F0120BE
:102AA00084F8500000BFFFF739F9074694F851B099
:102AB00060680390AA46BBF1010F0BD00398B0F5F4
:102AC000827F04D1A06810B9BBF1040F02D00220AC
:102AD0000190DBE0B8F1000F03D0B9F1000F00D096
:102AE00015B901200190D1E094F85100042802D0DA
:102AF000052084F8510000206065C4F83890E5870F
:102B0000A587C4F83080E586A586206460642068C7
:102B1000006800F04000402805D02068006840F0C0
:102B2000400021680860E068B0F5006F4AD1606835
:102B300010B1BAF1010F09D1206B00882168C8607B
:102B4000206B801C2063E08E401EE08633E020680E
:102B5000806800F00200022810D1E08E70B1029867
:102B600001280BD1206B00882168C860206B801C75
:102B70002063E08E401EE08600200290206880687E
:102B800000F0010068B1E08F58B12068C068A16B07
:102B90000880A06B801CA063E08F401EE0870120AE
:102BA0000290FFF7BBF8C01BB04204D3701C10B1F9
:102BB000032001906AE0E08E0028C8D1E08F002851
:102BC000C5D14AE0606810B1BAF1010F09D1206B9C
:102BD000007821680873206B401C2063E08E401E43
:102BE000E08634E02068806800F00200022810D1FE
:102BF000E08E70B1029801280BD1206B007821681B
:102C00000873206B401C2063E08E401EE08600208D
:102C100002902068806800F0010068B1E08F58B130
:102C20002068C068A16B0870A06B401CA063E08F97
:102C3000401EE08701200290FFF770F8C01BB042F1
:102C400001D3701C00B916B9032001901EE0E08E7C
:102C50000028C7D1E08F0028C4D13A46314620462B
:102C600001F04AF820B101200190202060650DE0BC
:102C7000A06850B900BF002000902068C068009094
:102C800020688068009000BF00BF00BF012084F86A
:102C9000510000BF002084F8500000BF0198FBE6FF
:102CA00070B504462546681EB0F1807F01D301202F
:102CB0000FE0681E4FF0E02148610F214FF0FF3018
:102CC00002F056F800204FF0E021886107200861EB
:102CD000002070BD7047704730B502460B4600BFFC
:102CE00092F83C00012801D1022030BD012082F879
:102CF0003C0000BF022082F83D0010684468106864
:102D0000816824F070041868044310684460184D0A
:102D10001068A8421BD01068B0F1804F17D0154D35
:102D20001068A84213D0144D1068A8420FD0134D5C
:102D30001068A8420BD0124D1068A84207D0114D60
:102D40001068A84203D0104D1068A84205D121F0A8
:102D500080015868014310688160012082F83D00BD
:102D600000BF002082F83C0000BF00BFBDE70000AC
:102D7000000001400004004000080040000C00403A
:102D8000000401400040014000180040014608686E
:102D9000C06840F001000B68D8600868806800F0E7
:102DA0000702062A05D00868006840F001000B6899
:102DB000186000207047704710B50446206800690D
:102DC000C0F34000D8B12068C068C0F34000B0B183
:102DD0006FF0020021680861012020772068806977
:102DE00000F0030018B12046FFF7E5FF05E020469C
:102DF00000F02CF9204600F00BFA00202077206824
:102E00000069C0F38000D8B12068C068C0F38000BA
:102E1000B0B16FF0040021680861022020772068BB
:102E2000806900F4407018B12046FFF7C4FF05E048
:102E3000204600F00BF9204600F0EAF90020207748
:102E400020680069C0F3C000D8B12068C068C0F332
:102E5000C000B0B16FF0080021680861042020773D
:102E60002068C06900F0030018B12046FFF7A3FFF7
:102E700005E0204600F0EAF8204600F0C9F90020FD
:102E8000207720680069C0F30010D8B12068C068BE
:102E9000C0F30010B0B16FF0100021680861082085
:102EA00020772068C06900F4407018B12046FFF711
:102EB00082FF05E0204600F0C9F8204600F0A8F99E
:102EC000002020772068006900F0010058B12068D8
:102ED000C06800F0010030B16FF0010021680861A6
:102EE000204600F0C3F920680069C0F3C01058B153
:102EF0002068C068C0F3C01030B16FF08000216856
:102F000008612046FFF7E6FE20680069C0F38010E4
:102F100058B12068C068C0F3801030B16FF0400035
:102F200021680861204600F0B3F920680069C0F309
:102F3000401058B12068C068C0F3401030B16FF045
:102F40002000216808612046FFF7C5FE10BD000083
:102F500010B586B00446142101A8FDF769F934497B
:102F6000206888423CD100BF0020009031480068B2
:102F700040F001002F4908600846006800F0010099
:102F8000009000BF00BF00BF00200090084600680E
:102F900040F0020008600846006800F0020000905F
:102FA00000BF00BFC02001900220029000200390CB
:102FB00004900220059001A91F48FEF7A9FD0120F9
:102FC00001900220029000200390049002200590BE
:102FD00001A91A48FEF79CFD1948FFF7D7FE24E027
:102FE00018492068884220D100BF00200090114875
:102FF000006840F002000F4908600846006800F0D1
:103000000200009000BF00BF4FF4E070019002206A
:1030100002900020039004900220059001A9074827
:10302000FEF776FD0848FFF7B1FE06B010BD0000C0
:10303000000400403038024000000240000402401A
:10304000C80300200008004008040020704770B545
:1030500004460D46164600BF94F83C00012801D1F5
:10306000022070BD012084F83C0000BF022084F8DB
:103070003D0036B1042E1BD0082E31D00C2E5ED16F
:1030800045E02946206801F0C7FA2068806940F0D1
:103090000800216888612068806920F004002168A8
:1030A000886120688069296908432168886147E050
:1030B0002946206801F0E8FA2068806940F4006041
:1030C000216888612068806920F4806021688861B7
:1030D00020688069296940EA0120216888612FE021
:1030E0002946206801F00EFB2068C06940F0080006
:1030F0002168C8612068C06920F004002168C861A7
:103100002068C069296908432168C86118E0294618
:10311000206801F033FB2068C06940F4006021683A
:10312000C8612068C06920F480602168C861206897
:10313000C069296940EA01202168C86100E000BF38
:1031400000BF012084F83D0000BF002084F83C004F
:1031500000BF00BF85E710B504460CB9012010BDC3
:1031600094F83D0028B9002084F83C00204600F087
:103170000DF8022084F83D00211D206801F0CEF9F1
:10318000012084F83D000020E9E7000038B504463E
:103190001C492068884218D100BF002000901A48BE
:1031A000006840F00200184908600846006800F016
:1031B0000200009000BF00BF002201211D20FEF789
:1031C0003DFE1D20FEF72AFE1BE0104920688842C4
:1031D00017D100BF002000900B48006840F00400A9
:1031E000094908600846006800F00400009000BF2C
:1031F00000BF002202211E20FEF720FE1E20FEF747
:103200000DFE38BD00040040403802400008004078
:103210007047000070B504460E4601223146206812
:1032200001F0E8F90F492068884203D00E49206870
:10323000884201D1012000E0002028B12068406CC4
:1032400040F40040216848642068806800F0070569
:10325000062D05D02068006840F001002168086054
:10326000002070BD000001400004014010B504467C
:103270000548844202D1FDF771FD04E00348844211
:1032800001D1FDF7A7FD10BDC803002008040020F0
:10329000704770472DE9F0470446206805682068AC
:1032A000C668206847694FF00008C14605F00F085E
:1032B000B8F1000F0AD105F0200038B106F0200067
:1032C00020B1204601F0AEFABDE8F087B8F1000F5A
:1032D00072D007F0010018B906F4907000286BD086
:1032E00005F0010030B106F4807018B1E06B40F0D9
:1032F0000100E06305F0040030B107F0010018B1EF
:10330000E06B40F00200E06305F0020030B107F02E
:10331000010018B1E06B40F00400E06305F0080024
:1033200048B106F0200010B907F0010018B1E06BB9
:1033300040F00800E063E06B70B305F0200028B1B6
:1033400006F0200010B1204601F06CFA20684069B8
:10335000C0F38019E06B00F0080010B9B9F1000F5C
:1033600023D0204601F03EFA2068406900F040007A
:10337000402816D12068406920F04000216848614B
:10338000606B50B11748616B0865606BFEF7CCF954
:1033900010B1606B016D88470CE02046FFF779FFA4
:1033A00008E02046FFF775FF04E02046FFF771FFB5
:1033B0000020E06388E7FFE705F0800030B106F009
:1033C000800018B1204601F075FC7DE705F0400053
:1033D00030B106F0400018B1204601F013FA73E74F
:1033E00000BF71E7D147000810B504460CB90120B1
:1033F00010BDA06900B100E000BF94F8390028B901
:10340000002084F83800204600F028F8242084F8B2
:1034100039002068C06820F400502168C860204648
:1034200001F054FA2068006920F490402168086196
:103430002068406920F02A00216848612068C0683F
:1034400040F400502168C8600020E063202084F828
:10345000390084F83A000020CAE7000010B586B0B1
:103460000446142101A8FCF7E3FE1F4920688842A6
:1034700038D100BF002000901C48006840F01000C8
:103480001A4908600846006800F01000009000BF6C
:1034900000BF00BF0020009014481438006840F0BE
:1034A00001001249143908600846006800F0010064
:1034B000009000BF00BF4FF4C06001900220029056
:1034C00000200390032004900720059001A90848DC
:1034D000FEF71EFB002211462520FEF7AFFC25203B
:1034E000FEF79CFC06B010BD0010014044380240BD
:1034F000000002407047704700BFFEE710B52DED99
:10350000028B0446B0EE408AB0EE480A21460348DA
:1035100000F0BAFCBDEC028B10BD0000540100208D
:1035200010B5B7EE000A0220FFF7E8FF10BD00005B
:1035300010B5024800F004F810BD0000540100204E
:1035400010B504461049E0680968081A00EE100A30
:10355000B8EE400AD4ED010A9FED0C1A60EE810A24
:10356000B4EEE00AF1EE10FA01DB012000E00020E9
:1035700040B105480068E0602078022802D120466A
:1035800000F006F810BD00004402002000007A445C
:1035900010B50446607808B9012000E00020607092
:1035A00060782169884710BD10B500F05FFF00F01A
:1035B0008DFFFCF73BFF10BD704700001FB50020DA
:1035C00000900190029003903148324908604FF416
:1035D0008030486000212F4881600121016101761F
:1035E000002180F82010C1622B4981620021C16056
:1035F0000621C161012180F8301000214161FDF7F1
:103600003BFE08B1FDF7A2FA0020009001200190D6
:10361000029069461F48FDF765FD08B1FDF796FA6F
:10362000012000900220019069461A48FDF75AFDDA
:1036300008B1FDF78BFA0220009003200190694643
:103640001448FDF74FFD08B1FDF780FA0320009004
:103650000420019069460F48FDF744FD08B1FDF7CD
:1036600075FA042000900520019069460948FDF78D
:1036700039FD08B1FDF76AFA052000900620019097
:1036800069460448FDF72EFD08B1FDF75FFA1FBD3E
:1036900000200140480200200100000F10B50E4834
:1036A0000E4908602A20486041070C4881600021CB
:1036B000C1604FF4403101614FF48001416100214C
:1036C000017641768176C17601774177FDF72EFF4D
:1036D00008B1FDF73BFA10BD00640040F002002085
:1036E00008B500BF002000900A48006840F4800040
:1036F000084908600846006800F48000009000BF98
:1037000000BF002211463820FEF798FB3820FEF754
:1037100085FB08BD3038024000B587B0142102A8EF
:10372000FCF786FD00BF002001903E48006840F095
:1037300080003C4908600846006800F08000019065
:1037400000BF00BF00BF002001900846006840F0A5
:10375000010008600846006800F00100019000BF09
:1037600000BF00BF002001900846006840F0020042
:1037700008600846006800F00200019000BF00BF2A
:1037800000BF002001900846006840F00800086073
:103790000846006800F00800019000BF00BF00224A
:1037A00009152148FEF7B4FA0122D1021E48FEF79E
:1037B000AFFA002250211D48FEF7AAFA012280210B
:1037C0001A48FEF7A5FA4FF44060029001200390DA
:1037D00004900220059002A91348FEF799F90F20E2
:1037E0000290002003900120049002A90F48FEF7E8
:1037F0008FF9102002900120039004900020059082
:1038000002A90A48FEF784F9C02002900120039023
:1038100004900220059002A90448FEF779F907B048
:1038200000BD00003038024000040240000C02409D
:1038300010B51048104908604FF4827048600021AC
:103840000D4881604FF40061C160002101610121D8
:103850004161490281612021C1610021016241620F
:1038600081620A21C162FEF7BFFE08B1FDF76EF961
:1038700010BD0000003001401803002010B51048B2
:10388000104908604FF48270486000210D48816043
:103890004FF40061C16000210161012141614902D1
:1038A00081611821C16100210162416281620A21A6
:1038B000C162FEF799FE08B1FDF748F910BD00009E
:1038C000003800407003002000B589B00020079048
:1038D00008901C216846FCF7ABFC21482149086090
:1038E0000020486020211F48816040F63301C160FC
:1038F0000021016180218161FFF72DFC08B1FDF7F6
:1039000025F9202007900020089007A91548FFF707
:10391000E3F908B1FDF71AF970200090002001903A
:1039200002900490002269460E48FFF790FB08B110
:10393000FDF70CF9042269460A48FFF788FB08B135
:10394000FDF704F9082269460648FFF780FB08B135
:10395000FDF7FCF80348FFF7FBFA09B000BD0000D3
:1039600000040040C803002000B589B00020079083
:1039700008901C216846FCF75BFC2148214908603F
:103980000020486020211F48816040F63301C1605B
:103990000021016180218161FFF7DDFB08B1FDF7A6
:1039A000D5F8202007900020089007A91548FFF7B8
:1039B00093F908B1FDF7CAF870200090002001903B
:1039C00002900490002269460E48FFF740FB08B1C0
:1039D000FDF7BCF8042269460A48FFF738FB08B136
:1039E000FDF7B4F8082269460648FFF730FB08B136
:1039F000FDF7ACF80348FFF7ABFA09B000BD0000D3
:103A0000000800400804002010B50B480B4908606E
:103A10004FF4E1304860002108488160C1600161D5
:103A20000C21416100218161C161FFF7DDFC08B11A
:103A3000FDF78CF810BD0000001001404804002084
:103A400000BFFEE710B52DED028BB0EE408AF0EE20
:103A5000608AF0EE680AB0EE480A034800F068FB9E
:103A6000BDEC028B10BD00007001002010B52DEDE3
:103A7000028BB0EE408AF0EE608AF0EE680AB0EE9B
:103A8000480A034800F054FBBDEC028B10BD000057
:103A9000BC010020704710B52DED028B0446D4ED1B
:103AA000060AB0EE600A01F091F9D4ED170A20EE93
:103AB000208AD4ED060AB0EE600A01F0CFF9D4ED09
:103AC000200A00EEC08A84ED0E8AD4ED060AB0EE1C
:103AD000600A01F0C3F9D4ED170A20EE208AD4ED74
:103AE000060AB0EE600A01F071F9D4ED200A00EE8A
:103AF000808A84ED0F8ABDEC028B10BD10B52DEDD0
:103B0000028B0446D4ED060AB0EE600A01F05EF9BD
:103B1000D4ED0A0A20EE208AD4ED060AB0EE600A3F
:103B200001F09CF9D4ED0B0A00EE808A84ED0D8A39
:103B3000D4ED060AB0EE600A01F090F9D4ED0A0A5D
:103B4000F1EE600A20EE208AD4ED060AB0EE600A9B
:103B500001F03CF9D4ED0B0A00EE808A84ED0C8A6A
:103B6000BDEC028B10BD704710B5FFF7D9FCFCF718
:103B7000EFFF10BD10B5FFF7DBFCFDF725F810BD1A
:103B80007047704710B5024800F028F810BD0000DB
:103B90001802002010B5024800F020F810BD000007
:103BA0002C02002008B54FF47A73012269460348BD
:103BB000FEF7DEFDBDF8000008BD00001803002080
:103BC00008B54FF47A73012269460348FEF7D0FD29
:103BD000BDF8000008BD00007003002070B52DED99
:103BE000028B04464FF6FF7500206168884701206C
:103BF0002169884748F22100A1688847E06880472A
:103C00000546012061688847012021698847C5F37E
:103C10000E0500EE105AF8EE400A9FED101A80EEE5
:103C2000810ADFED0F0A20EE200AB0EE408A94ED03
:103C3000000A38EE400AB0EE408AB5EEC08AF1EED6
:103C400010FA05D29FED060A38EE000AB0EE408A5F
:103C5000B0EE480ABDEC028B70BD000000FEFF46CE
:103C60000000B443F8B504460E4615466068B0F54A
:103C7000827F0DD1A068B0F5004F03D0A068B0F5E9
:103C8000806F05D12068006820F04000216808603E
:103C90006068B0F5827F1FD1A068B0F5806F0DD04D
:103CA0003346002280212046009500F05BF808B3DF
:103CB000606D40F0200060650320F8BD33460022AF
:103CC00001212046009500F04DF898B1606D40F05C
:103CD000200060650320F0E73346002201212046E2
:103CE000009500F03FF828B1606D40F0200060655D
:103CF0000320E2E70020E0E77CB504460D461646C7
:103D0000164800681821B0FBF1F01549B0FBF1F03E
:103D10004FF47A71484301906068B0F5827F0DD10D
:103D20002B46002280212046009600F01BF898B117
:103D3000606D40F02000606503207CBD00BF0198ED
:103D400000B908E00198401E019020688068C0F327
:103D5000C0100028F3D100BF0020EEE70C000020C7
:103D600040420F002DE9F04104460E4617461D461D
:103D7000DDF818803EE0681CD8B3FDF7CFFFA0EB5C
:103D80000800A84200D2A5BB2068406820F0E000EF
:103D9000216848606068B0F5827F0DD1A068B0F5F9
:103DA000004F03D0A068B0F5806F05D1206800688F
:103DB00020F0400021680860A06AB0F5005F0DD1D6
:103DC00000BF2068006820F4005021680860206867
:103DD000006840F400502168086000BF012084F8AA
:103DE000510000BF002084F8500000BF0320BDE850
:103DF000F081FFE7206880683040B04201D10120A7
:103E000000E00020B842B6D10020F0E7704780ED16
:103E1000100AC0ED110A80ED121AC0ED181A80EDDB
:103E2000190AC0ED1A0A80ED1B1AC0ED211A70475D
:103E300080ED040AC0ED030A704701727047022149
:103E4000017080ED010A704710B504460020207013
:103E5000227A0AB9012200E000221046216988472F
:103E600010BD10B5044601202070207A21698847D2
:103E700010BD000010B50446224610210148FDF790
:103E800047FF10BD000C024070B52DED028B0546BA
:103E90000C46B0EE408A24B1012C06D0022C0ED183
:103EA00007E02846FFF7D0FF09E02846FFF7D9FFD3
:103EB00005E0B0EE480A2846FFF7C1FF00BF00BF8B
:103EC000BDEC028B70BD000010B5044622464FF4D5
:103ED00080610248FDF71CFF10BD00000004024095
:103EE00010B50446224640210148FDF711FF10BDE0
:103EF000000C024010B5044622464FF4006102480F
:103F0000FDF706FF10BD00000004024010B5044696
:103F1000224680210148FDF7FBFE10BD000C024047
:103F2000B5EEC00AF1EE10FA03D2DFED0E0AB0EEE4
:103F3000600ADFED0D0AB4EEE00AF1EE10FA03DDDF
:103F4000DFED090AB0EE600ADFED080A9FED081AFE
:103F500041EE400AFCEEE00A10EE900A05490968BD
:103F600048637047000000000000484200400345DD
:103F700000002842C8030020B5EEC00AF1EE10FA96
:103F800003D2DFED0E0AB0EE600ADFED0D0AB4EEEB
:103F9000E00AF1EE10FA03DDDFED090AB0EE600A87
:103FA000DFED080A9FED081A41EE400AFCEEE00A38
:103FB00010EE900A05490968886370470000000008
:103FC000000048420040034500002842C80300208A
:103FD000B5EEC00AF1EE10FA03D2DFED0E0AB0EE34
:103FE000600ADFED0D0AB4EEE00AF1EE10FA03DD2F
:103FF000DFED090AB0EE600ADFED080A9FED081A4E
:1040000041EE400AFCEEE00A10EE900A054909680C
:10401000C8637047000000000000484200400345AC
:1040200000002842C8030020B5EEC00AF1EE10FAE5
:1040300003D2DFED0E0AB0EE600ADFED0D0AB4EE3A
:10404000E00AF1EE10FA03DDDFED090AB0EE600AD6
:10405000DFED080A9FED081A41EE400AFCEEE00A87
:1040600010EE900A05490968486370470000000097
:104070000000484200400345000028420804002098
:10408000B5EEC00AF1EE10FA03D2DFED0E0AB0EE83
:10409000600ADFED0D0AB4EEE00AF1EE10FA03DD7E
:1040A000DFED090AB0EE600ADFED080A9FED081A9D
:1040B00041EE400AFCEEE00A10EE900A054909685C
:1040C000886370470000000000004842004003453C
:1040D0000000284208040020B5EEC00AF1EE10FAF4
:1040E00003D2DFED0E0AB0EE600ADFED0D0AB4EE8A
:1040F000E00AF1EE10FA03DDDFED090AB0EE600A26
:10410000DFED080A9FED081A41EE400AFCEEE00AD6
:1041100010EE900A05490968C86370470000000066
:1041200000004842004003450000284208040020E7
:1041300010B52DED028B0446F0EE408AB0EE608A99
:10414000C4ED008A84ED018A204600F099F82046EB
:10415000FCF780FE204600F003F8BDEC028B10BD9A
:1041600010B52DED048B044694F83C00072877D257
:10417000DFE800F07604172A3D50630094ED090A49
:10418000D4ED0B0A30EE200AD4ED0C0A30EE208A72
:1041900094ED0B0AD4ED0C0A70EE208A94ED0C9A83
:1041A0005EE094ED0B0AD4ED0C0A30EE208A94ED1B
:1041B000070AD4ED0B0A30EE200AD4ED0C0A70EE9B
:1041C000208A94ED0C9A4BE094ED0C8A94ED070A4A
:1041D000D4ED080A30EE200AD4ED0C0A70EE208AE5
:1041E00094ED080AD4ED0C0A30EE209A38E094EDF4
:1041F0000C8A94ED080AD4ED0C0A70EE208A94ED36
:10420000060AD4ED080A30EE200AD4ED0C0A30EE8E
:10421000209A25E094ED0A0AD4ED0C0A30EE208AAB
:10422000D4ED0C8A94ED060AD4ED0A0A30EE200A89
:10423000D4ED0C0A30EE209A12E094ED090AD4ED88
:104240000A0A30EE200AD4ED0C0A30EE208AD4EDB2
:104250000C8A94ED0A0AD4ED0C0A30EE209A00BFC5
:1042600000BFB0EE480A206C8047B0EE680A606C70
:104270008047B0EE490AA06C8047BDEC048B10BDAE
:1042800070B590ED010A80ED020AD0ED010AB0EEA2
:10429000001A80EE810AD0ED000A9FED2E1A10EE72
:1042A000810A80ED030AD0ED010AB0EE001A80EE1B
:1042B000810AD0ED000AF1EE600A9FED261A10EE99
:1042C000810A80ED040A90ED020AB5EEC00AF1EE13
:1042D00010FA01DD012100E0002190ED030AB5EEA6
:1042E000C00AF1EE10FA01DD012200E0002290ED9B
:1042F000040AB5EEC00AF1EE10FA01DD012300E078
:1043000000239D00022606FB02550D44ECB2072C4B
:104310001DD2DFE804F01C081804100C140001255D
:1043200080F83C5013E0022580F83C500FE0032554
:1043300080F83C500BE0042580F83C5007E0052550
:1043400080F83C5003E0062580F83C5000BF00BFD9
:1043500070BD00002DB25D3F10B509480068401CDB
:104360000749086007480068401C0649086006487D
:104370000068401C04490860FDF7DCFC10BD00002B
:1043800010000020440200204002002000B593B03D
:10439000302107A8FBF74CFF142102A8FBF748FFC8
:1043A00000BF002001902448006840F0805022495E
:1043B00008600846006800F08050019000BF00BF10
:1043C00000BF002001901D48006840F480401B4958
:1043D00008600846006800F48040019000BF00BFFC
:1043E000012007900004089002200D9041050E91D5
:1043F00004210F91A8211091022111910421129101
:1044000007A8FDF7ADFE08B1FCF7A0FB0F20029056
:1044100002200390002004904FF4A05005904FF428
:1044200080500690052102A8FDF75AFD08B1FCF75F
:104430008DFB13B000BD000040380240007000400A
:104440000548006840F47000034908604FF00060C0
:10445000014980390860704788ED00E010B50248D6
:10446000FEF7AAFC10BD0000C803002010B5002113
:104470001048FEF7CFFE04210E48FEF7CBFE0821C0
:104480000C48FEF7C7FE00200A490968486309493D
:104490000968886307490968C8639FED070AFFF741
:1044A0003FFD9FED050AFFF767FD9FED030AFFF74C
:1044B0008FFD10BDC80300200000000010B50248A9
:1044C000FEF77AFC10BD00000804002010B50021A2
:1044D0001048FEF79FFE04210E48FEF79BFE0821C0
:1044E0000C48FEF797FE00200A490968486309490D
:1044F0000968886307490968C8639FED070AFFF7E1
:1045000093FD9FED050AFFF7BBFD9FED030AFFF743
:10451000E3FD10BD080400200000000010B5026893
:10452000294B98420ED0B0F1804F0BD0274B9842C8
:1045300008D0274B984205D0264B984202D0264BF4
:10454000984203D122F070024B681A431E4B9842E6
:1045500020D0B0F1804F1DD01C4B98421AD01C4B7C
:10456000984217D01B4B984214D01B4B984211D045
:104570001A4B98420ED01A4B98420BD0194B9842C6
:1045800008D0194B984205D0184B984202D0184BCE
:10459000984203D122F44072CB681A4322F0800380
:1045A0004C6943EA040202608B68C3620B68836251
:1045B000054B984202D0084B984201D10B69036326
:1045C0000123436110BD00000000014000040040D1
:1045D00000080040000C0040000401400040014081
:1045E000004401400048014000180040001C004009
:1045F0000020004030B501F01F05012404FA05F346
:10460000046A9C430462046A01F01F0502FA05F57E
:104610002C43046230BD000030B5056A25F0010569
:104620000562026A4368846924F0700424F003047C
:104630000D682C4322F002028D682A43104DA842D7
:1046400000D103E00F4DA84206D100BF22F00802BE
:10465000CD682A4322F00402094DA84202D0094D38
:10466000A84207D123F4807323F400734D692B43D0
:104670008D692B43436084614D684563026230BDA0
:10468000000001400004014030B5056A25F0100526
:104690000562026A4368846924F4E04424F44074A7
:1046A0000D6844EA052422F020028D6842EA0512D2
:1046B000124DA84200D103E0114DA84207D100BF1E
:1046C00022F08002CD6842EA051222F040020B4D32
:1046D000A84202D00A4DA84209D123F4806323F4F2
:1046E00000634D6943EA85038D6943EA85034360AE
:1046F00084614D688563026230BD000000000140A6
:104700000004014030B5056A25F480750562026A2F
:104710004368C46924F0700424F003040D682C433A
:1047200022F400728D6842EA0522124DA84200D19F
:1047300003E0114DA84207D100BF22F40062CD680A
:1047400042EA052222F480620A4DA84202D00A4DB4
:10475000A84209D123F4805323F400534D6943EA5E
:1047600005138D6943EA05134360C4614D68C56351
:10477000026230BD000001400004014030B5056A0E
:1047800025F480550562036A4468C26922F4E04258
:1047900022F440720D6842EA052223F400538D682A
:1047A00043EA0533084DA84202D0084DA84204D17F
:1047B00024F480444D6944EA85144460C2614D6824
:1047C0000564036230BD00000000014000040140A8
:1047D00070B50546AC6B0020E085E0842046FEF70E
:1047E00058FD70BD0168C96821F490710268D160FC
:1047F0000168496921F0010102685161202180F8B6
:104800003A10704710B504462068C06820F0400098
:104810002168C860202084F839002046FEF76BFE2E
:10482000002010BD70B5044694F83A0022284AD101
:10483000A068B0F5805F13D1A56A206940B92068EF
:104840004068C0F308002880A06A801CA06219E0BC
:1048500020684068C0B22880A06A401CA06211E0B5
:10486000206938B920684068C1B2A26A501CA062B1
:10487000117007E02068406800F07F01A26A501CB8
:10488000A0621170E08D401E80B2E085C8B920683A
:10489000C06820F020002168C8602068C06820F44B
:1048A00080702168C8602068406920F0010021689C
:1048B0004861202084F83A002046FEF71BFE0020C5
:1048C00070BD0020FCE70220FAE700002DE9F84F58
:1048D00004462068006920F44050E16808432168DC
:1048E00008612169A068084361690843E1690843D8
:1048F00000902068C06849F20C6188430099084321
:104900002168C8602068406920F44070A1690843AC
:1049100021684861E069B0F5004F75D1E34920682E
:10492000884203D0E249206888426FD1FDF7B0FB8E
:10493000814602206168A0FB01510B461920A9FBAA
:1049400000712A463846FBF73BFC6421B0FBF1F0CE
:104950004FEA001A02206168A0FB01510B461920A2
:10496000A9FB00712A463846FBF72AFC07460220BD
:104970006168A0FB01510B461920A9FB00B12A4632
:104980005846FBF71DFC6421B0FBF1F000EBC001C1
:1049900001EB0010A7EB8000322101EBC000642185
:1049A000B0FBF1F000F0F8000AEB400A0220616869
:1049B000A0FB01510B461920A9FB00712A4638467D
:1049C000FBF7FEFB074602206168A0FB01510B4686
:1049D0001920A9FB00B12A465846FBF7F1FB6421D8
:1049E000B0FBF1F000EBC00101EB0010A7EB800081
:1049F000322101EBC0006421B0FBF1F000F00700B0
:104A00005044216888604FE16EE0FFE7FDF730FB1E
:104A1000814602206168A0FB01510B461920A9FBC9
:104A200000712A463846FBF7CBFB6421B0FBF1F05E
:104A30004FEA001A02206168A0FB01510B461920C1
:104A4000A9FB00712A463846FBF7BAFB074602204D
:104A50006168A0FB01510B461920A9FB00B12A4651
:104A60005846FBF7ADFB6421B0FBF1F000EBC00151
:104A700001EB0010A7EB8000322101EBC0006421A4
:104A8000B0FBF1F000F0F8000AEB400A0220616888
:104A9000A0FB01510B461920A9FB00712A4638469C
:104AA000FBF78EFB074602206168A0FB015003461E
:104AB0001920A9FB00B12A465846FBF781FB642167
:104AC000B0FBF1F000EBC00101EB0010A7EB8000A0
:104AD000322101EBC0006421B0FBF1F000F00700CF
:104AE000504421688860DFE070492068884203D024
:104AF0006F49206888426BD1FDF7CAFA81460420CD
:104B00006168A0FB01510B461920A9FB00712A46E0
:104B10003846FBF755FB824604206168A0FB015133
:104B20000B461920A9FB00712A463846FBF748FBC3
:104B30006421B0FBF1F000EBC00101EB0010AAEB27
:104B40008000322101EB00106421B0FBF1F000F095
:104B5000F00A04206168A0FB015003461920A9FB5C
:104B600000712A463846FBF72BFB6421B0FBF1F0BD
:104B70000AEB001A04206168A0FB01510B461920C2
:104B8000A9FB00712A463846FBF71AFB07460420AA
:104B90006168A0FB015003461920A9FB00B12A4619
:104BA0005846FBF70DFB6421B0FBF1F000EBC001B0
:104BB00001EB0010A7EB8000322101EB0010642113
:104BC000B0FBF1F000F00F005044216888606BE00A
:104BD000FDF74EFA814604206168A0FB01500346B0
:104BE0001920A9FB00712A463846FBF7E9FA8246EC
:104BF00004206168A0FB015003461920A9FB007145
:104C00002A463846FBF7DCFA6421B0FBF1F000EBF2
:104C1000C00101EB0010AAEB8000322101EB001073
:104C20006421B0FBF1F000F0F00A04206168A0FB01
:104C3000015003461920A9FB00712A463846FBF7AC
:104C4000BFFA6421B0FBF1F00AEB001A042061689E
:104C5000A0FB017003461920A9FB005001463A460B
:104C60002846FBF7ADFA074604206168A0FB015017
:104C700003461920A9FB00B12A465846FBF7A0FAC3
:104C80006421B0FBF1F000EBC00101EB0010A7EBD9
:104C90008000322101EB00106421B0FBF1F000F044
:104CA0000F00504421688860BDE8F88F0010014073
:104CB00000140140014691F8390021282CD1886860
:104CC000B0F5805F0FD10A6A1088C0F308000B6846
:104CD0005860086918B9086A801C086209E0086A07
:104CE000401C086205E00B6A581C086218780B68C3
:104CF0005860C88C401E80B2C88458B90868C06823
:104D000020F080000B68D8600868C06840F0400060
:104D10000B68D860002070470220FCE710B50248FD
:104D2000FEF7B8FA10BD00004804002000BFFEE7FF
:104D300001B54FF47A73012269460248FDF7CAFDB6
:104D400008BD00001803002001B54FF47A7301225A
:104D500069460248FDF7BEFD08BD00007003002053
:104D600002480068C0F30220704700000CED00E02C
:104D700010B5002804DB0A07130E054A135406E099
:104D80000A07140E034A00F00F031B1FD45410BD72
:104D900000E400E018ED00E02DED020B019820F09A
:104DA000004001909DED000B02B0704702E008C882
:104DB000121F08C1002AFAD170477047002001E095
:104DC00001C1121F002AFBD170470000B0EE402A3B
:104DD0009FED1F4AF5EE003A42EE043AF0EE630A08
:104DE000FDEEE03A13EE901AF5EEC00AF1EE10FA7D
:104DF00000D2491E03EE901AF8EEE33A70EEE33A61
:104E0000F0EE630ADFED133A60EEA31AFCEEE13A2E
:104E100013EE902AC2F3080003EE900AF8EE633A0C
:104E200031EEE31A0C4A02EB8002D2ED002A0A4B63
:104E3000421C03EB820292ED003AF7EE003A73EE69
:104E4000C13A63EEA23AB0EE630A01EE030A70477C
:104E500083F9223E00000044984F0008F0EE400A1B
:104E6000F5EEC00AF1EE10FA09D29FED240AF4EE35
:104E7000C00AF1EE10FA02DBB0EE600A70479FED57
:104E8000200A20EE801ABDEEC10A10EE101AF5EECF
:104E9000C00AF1EE10FA00D2491E00EE101AB8EE68
:104EA000C00A31EE400AB0EE401A9FED160A21EE1C
:104EB000002ABCEEC20A10EE102AC2F3080000EE6F
:104EC000100AB8EE400A72EE401A0F4A02EB800256
:104ED00092ED003A0C4B421C03EB8202D2ED003AF9
:104EE000B7EE000A30EE610A20EE030AF0EE402A27
:104EF00041EEA32AB0EE620AC0E70000CD024CB436
:104F000083F9223E00000044984F0008FCF71EFF82
:104F1000FFF73CFAFEF700FCFEF7E2FBFEF74EFB64
:104F2000FEF786FCFEF7AAFCFEF7B8FBFEF7CCFC0A
:104F3000FEF71AFDFEF768FDFBF788FB01E0FBF7C3
:104F40008FFBFCE770B50446FCF7EEFE4FF47A7178
:104F500091FBF0F04FF0E0214969B1FBF0F04443E0
:104F60004FF0E020856900E000BF4FF0E02080694D
:104F7000281AA042F8D370BD0006101600061016BD
:104F800000000000000000000102030406070809F9
:104F9000000000000102030400000000920E493CE2
:104FA000B10AC93C2BC3163D2EFB483D752B7B3DFA
:104FB00004A9963D80B6AF3D36BDC83D2FBCE13D4E
:104FC00073B2FA3D87CF093E8340163EB5AB223E11
:104FD000A2102F3ECF6E3B3EC2C5473E0115543E48
:104FE000135C603E7F9A6C3ECCCF783EC07D823EA3
:104FF000938E883E229A8E3E32A0943E86A09A3EA0
:10500000E59AA03E128FA63ED47CAC3EEF63B23E42
:105010002A44B83E491DBE3E15EFC33E53B9C93EB2
:10502000CA7BCF3E4136D53E80E8DA3E4F92E03E25
:105030007533E63EBBCBEB3EEA5AF13ECBE0F63EA3
:10504000275DFC3EE4E7003F3D9C033F824B063F6B
:105050009BF5083F6B9A0B3FDA390E3FCDD3103FDB
:105060002A68133FD9F6153FC07F183FC6021B3F81
:10507000D17F1D3FCBF61F3F9967223F25D2243FAA
:105080005636273F1594293F4AEB2B3FDE3B2E3FF8
:10509000BB85303FC9C8323FF304353F233A373F21
:1050A0004268393F3B8F3B3FF9AE3D3F67C73F3FCB
:1050B00070D8413F01E2433F03E4453F65DE473F8F
:1050C00012D1493FF8BB4B3F029F4D3F207A4F3FE3
:1050D0003D4D513F4918533F31DB543FE595563F15
:1050E0005348583F6AF2593F1A945B3F532D5D3F36
:1050F00005BE5E3F2146603F97C5613F5A3C633F16
:1051000059AA643F880F663FD86B673F3CBF683F32
:10511000A7096A3F0C4B6B3F5E836C3F93B26D3FB8
:105120009ED86E3F73F56F3F0809713F5213723F6F
:105130004714733FDD0B743F0BFA743FC6DE753FB7
:1051400007BA763FC58B773FF853783F9812793F7F
:105150009DC7793F02737A3FBE147B3FCDAC7B3F46
:10516000283B7C3FC9BF7C3FAC3A7D3FCCAB7D3F09
:1051700023137E3FB0707E3F6DC47E3F580E7F3F4D
:105180006D4E7F3FAB847F3F0FB17F3F97D37F3F13
:1051900043EC7F3F11FB7F3F0000803F11FB7F3FCF
:1051A00043EC7F3F97D37F3F0FB17F3FAB847F3F7F
:1051B0006D4E7F3F580E7F3F6DC47E3FB0707E3F87
:1051C00023137E3FCCAB7D3FAC3A7D3FC9BF7C3FD4
:1051D000283B7C3FCDAC7B3FBE147B3F02737A3FC4
:1051E0009DC7793F9812793FF853783FC58B773F39
:1051F00007BA763FC6DE753F0BFA743FDD0B743F8E
:105200004714733F5213723F0809713F73F56F3FA4
:105210009ED86E3F93B26D3F5E836C3F0C4B6B3FED
:10522000A7096A3F3CBF683FD86B673F880F663F5E
:1052300059AA643F5A3C633F97C5613F2146603F8E
:1052400005BE5E3F532D5D3F1A945B3F6AF2593FA6
:105250005348583FE595563F31DB543F4918533F7B
:105260003D4D513F207A4F3F029F4D3FF8BB4B3F92
:1052700012D1493F65DE473F03E4453F01E2433F2A
:1052800070D8413F67C73F3FF9AE3D3F3B8F3B3F43
:105290004268393F233A373FF304353FC9C8323FAC
:1052A000BB85303FDE3B2E3F4AEB2B3F1594293F19
:1052B0005636273F25D2243F9967223FCBF61F3F22
:1052C000D17F1D3FC6021B3FC07F183FD9F6153F57
:1052D0002A68133FCDD3103FDA390E3F6B9A0B3F4C
:1052E0009BF5083F824B063F3D9C033FE4E7003FB0
:1052F000275DFC3ECBE0F63EEA5AF13EBBCBEB3EEF
:105300007533E63E4F92E03E80E8DA3E4136D53EC8
:10531000CA7BCF3E53B9C93E15EFC33E491DBE3EC1
:105320002A44B83EEF63B23ED47CAC3E128FA63E18
:10533000E59AA03E86A09A3E32A0943E229A8E3EE6
:10534000938E883EC07D823ECCCF783E7F9A6C3E65
:10535000135C603E0115543EC2C5473ECF6E3B3ED6
:10536000A2102F3EB5AB223E8340163E87CF093EAA
:1053700073B2FA3D2FBCE13D36BDC83D80B6AF3DAE
:1053800004A9963D752B7B3D2EFB483D2BC3163D56
:10539000B10AC93C920E493C00000000920E49BC83
:1053A000B10AC9BC2BC316BD2EFB48BD752B7BBDF6
:1053B00004A996BD80B6AFBD36BDC8BD2FBCE1BD4A
:1053C00073B2FABD87CF09BE834016BEB5AB22BE0D
:1053D000A2102FBECF6E3BBEC2C547BE011554BE44
:1053E000135C60BE7F9A6CBECCCF78BEC07D82BE9F
:1053F000938E88BE229A8EBE32A094BE86A09ABE9C
:10540000E59AA0BE128FA6BED47CACBEEF63B2BE3E
:105410002A44B8BE491DBEBE15EFC3BE53B9C9BEAE
:10542000CA7BCFBE4136D5BE80E8DABE4F92E0BE21
:105430007533E6BEBBCBEBBEEA5AF1BECBE0F6BE9F
:10544000275DFCBEE4E700BF3D9C03BF824B06BF67
:105450009BF508BF6B9A0BBFDA390EBFCDD310BFD7
:105460002A6813BFD9F615BFC07F18BFC6021BBF7D
:10547000D17F1DBFCBF61FBF996722BF25D224BFA6
:10548000563627BF159429BF4AEB2BBFDE3B2EBFF4
:10549000BB8530BFC9C832BFF30435BF233A37BF1D
:1054A000426839BF3B8F3BBFF9AE3DBF67C73FBFC7
:1054B00070D841BF01E243BF03E445BF65DE47BF8B
:1054C00012D149BFF8BB4BBF029F4DBF207A4FBFDF
:1054D0003D4D51BF491853BF31DB54BFE59556BF11
:1054E000534858BF6AF259BF1A945BBF532D5DBF32
:1054F00005BE5EBF214660BF97C561BF5A3C63BF12
:1055000059AA64BF880F66BFD86B67BF3CBF68BF2E
:10551000A7096ABF0C4B6BBF5E836CBF93B26DBFB4
:105520009ED86EBF73F56FBF080971BF521372BF6B
:10553000471473BFDD0B74BF0BFA74BFC6DE75BFB3
:1055400007BA76BFC58B77BFF85378BF981279BF7B
:105550009DC779BF02737ABFBE147BBFCDAC7BBF42
:10556000283B7CBFC9BF7CBFAC3A7DBFCCAB7DBF05
:1055700023137EBFB0707EBF6DC47EBF580E7FBF49
:105580006D4E7FBFAB847FBF0FB17FBF97D37FBF0F
:1055900043EC7FBF11FB7FBF000080BF11FB7FBFCB
:1055A00043EC7FBF97D37FBF0FB17FBFAB847FBF7B
:1055B0006D4E7FBF580E7FBF6DC47EBFB0707EBF83
:1055C00023137EBFCCAB7DBFAC3A7DBFC9BF7CBFD0
:1055D000283B7CBFCDAC7BBFBE147BBF02737ABFC0
:1055E0009DC779BF981279BFF85378BFC58B77BF35
:1055F00007BA76BFC6DE75BF0BFA74BFDD0B74BF8A
:10560000471473BF521372BF080971BF73F56FBFA0
:105610009ED86EBF93B26DBF5E836CBF0C4B6BBFE9
:10562000A7096ABF3CBF68BFD86B67BF880F66BF5A
:1056300059AA64BF5A3C63BF97C561BF214660BF8A
:1056400005BE5EBF532D5DBF1A945BBF6AF259BFA2
:10565000534858BFE59556BF31DB54BF491853BF77
:105660003D4D51BF207A4FBF029F4DBFF8BB4BBF8E
:1056700012D149BF65DE47BF03E445BF01E243BF26
:1056800070D841BF67C73FBFF9AE3DBF3B8F3BBF3F
:10569000426839BF233A37BFF30435BFC9C832BFA8
:1056A000BB8530BFDE3B2EBF4AEB2BBF159429BF15
:1056B000563627BF25D224BF996722BFCBF61FBF1E
:1056C000D17F1DBFC6021BBFC07F18BFD9F615BF53
:1056D0002A6813BFCDD310BFDA390EBF6B9A0BBF48
:1056E0009BF508BF824B06BF3D9C03BFE4E700BFAC
:1056F000275DFCBECBE0F6BEEA5AF1BEBBCBEBBEEB
:105700007533E6BE4F92E0BE80E8DABE4136D5BEC4
:10571000CA7BCFBE53B9C9BE15EFC3BE491DBEBEBD
:105720002A44B8BEEF63B2BED47CACBE128FA6BE14
:10573000E59AA0BE86A09ABE32A094BE229A8EBEE2
:10574000938E88BEC07D82BECCCF78BE7F9A6CBE61
:10575000135C60BE011554BEC2C547BECF6E3BBED2
:10576000A2102FBEB5AB22BE834016BE87CF09BEA6
:1057700073B2FABD2FBCE1BD36BDC8BD80B6AFBDAA
:1057800004A996BD752B7BBD2EFB48BD2BC316BD52
:10579000B10AC9BC920E49BC00000080BC57000889
:1057A0000000002048020000D40300083C58000814
:1057B0004802002070060000BC4D00084132104233
:1057C000019324F41517B75139027E0713C93E140B
:1057D00008853B1C08C50D08190413453A0A8608BC
:1057E0009C1AE19C1A959C133D0E1B08FD9C5A6D5A
:1057F0009CC172011A752C013E23C84243404113DB
:10580000213F1B0879041AD10401367A484C132928
:10581000401B0881041AD90401101E0C334642F5BE
:10582000B813494D1B08C1E813454F1F08534829B9
:0C583000410D781A31145AA514810000B3
:040000050800018965
:00000001FF
